{
  "contractName": "LFGlobalEscrow",
  "abi": [
    {
      "anonymous": false,
      "inputs": [
        {
          "indexed": false,
          "internalType": "string",
          "name": "referenceId",
          "type": "string"
        },
        {
          "indexed": false,
          "internalType": "address",
          "name": "disputer",
          "type": "address"
        },
        {
          "indexed": false,
          "internalType": "uint256",
          "name": "lastBlock",
          "type": "uint256"
        }
      ],
      "name": "Disputed",
      "type": "event"
    },
    {
      "anonymous": false,
      "inputs": [
        {
          "indexed": false,
          "internalType": "string",
          "name": "referenceId",
          "type": "string"
        },
        {
          "indexed": false,
          "internalType": "address",
          "name": "winner",
          "type": "address"
        },
        {
          "indexed": false,
          "internalType": "uint256",
          "name": "lastBlock",
          "type": "uint256"
        }
      ],
      "name": "Finalized",
      "type": "event"
    },
    {
      "anonymous": false,
      "inputs": [
        {
          "indexed": false,
          "internalType": "string",
          "name": "referenceId",
          "type": "string"
        },
        {
          "indexed": false,
          "internalType": "address",
          "name": "payer",
          "type": "address"
        },
        {
          "indexed": false,
          "internalType": "uint256",
          "name": "amount",
          "type": "uint256"
        },
        {
          "indexed": false,
          "internalType": "address",
          "name": "payee",
          "type": "address"
        },
        {
          "indexed": false,
          "internalType": "address",
          "name": "trustedParty",
          "type": "address"
        },
        {
          "indexed": false,
          "internalType": "uint256",
          "name": "lastBlock",
          "type": "uint256"
        }
      ],
      "name": "Initiated",
      "type": "event"
    },
    {
      "anonymous": false,
      "inputs": [
        {
          "indexed": true,
          "internalType": "address",
          "name": "previousOwner",
          "type": "address"
        },
        {
          "indexed": true,
          "internalType": "address",
          "name": "newOwner",
          "type": "address"
        }
      ],
      "name": "OwnershipTransferred",
      "type": "event"
    },
    {
      "anonymous": false,
      "inputs": [
        {
          "indexed": false,
          "internalType": "string",
          "name": "referenceId",
          "type": "string"
        },
        {
          "indexed": false,
          "internalType": "address",
          "name": "signer",
          "type": "address"
        },
        {
          "indexed": false,
          "internalType": "string",
          "name": "signedOwner",
          "type": "string"
        },
        {
          "indexed": false,
          "internalType": "string",
          "name": "signedAgent",
          "type": "string"
        },
        {
          "indexed": false,
          "internalType": "uint256",
          "name": "lastBlock",
          "type": "uint256"
        }
      ],
      "name": "Signature",
      "type": "event"
    },
    {
      "anonymous": false,
      "inputs": [
        {
          "indexed": false,
          "internalType": "string",
          "name": "referenceId",
          "type": "string"
        },
        {
          "indexed": false,
          "internalType": "address",
          "name": "payee",
          "type": "address"
        },
        {
          "indexed": false,
          "internalType": "uint256",
          "name": "amount",
          "type": "uint256"
        },
        {
          "indexed": false,
          "internalType": "uint256",
          "name": "lastBlock",
          "type": "uint256"
        }
      ],
      "name": "Withdrawn",
      "type": "event"
    },
    {
      "anonymous": false,
      "inputs": [
        {
          "components": [
            {
              "internalType": "address",
              "name": "agentAddress",
              "type": "address"
            },
            {
              "internalType": "bool",
              "name": "isAgent",
              "type": "bool"
            }
          ],
          "indexed": false,
          "internalType": "struct LFGlobalEscrow.AgentList[]",
          "name": "agentList",
          "type": "tuple[]"
        }
      ],
      "name": "getAgentLists",
      "type": "event"
    },
    {
      "inputs": [
        {
          "internalType": "string",
          "name": "",
          "type": "string"
        }
      ],
      "name": "_escrow",
      "outputs": [
        {
          "internalType": "string",
          "name": "referenceId",
          "type": "string"
        },
        {
          "internalType": "address payable",
          "name": "owner",
          "type": "address"
        },
        {
          "internalType": "address payable",
          "name": "sender",
          "type": "address"
        },
        {
          "internalType": "address payable",
          "name": "receiver",
          "type": "address"
        },
        {
          "internalType": "address payable",
          "name": "agent",
          "type": "address"
        },
        {
          "internalType": "uint256",
          "name": "fund",
          "type": "uint256"
        },
        {
          "internalType": "bool",
          "name": "disputed",
          "type": "bool"
        },
        {
          "internalType": "bool",
          "name": "finalized",
          "type": "bool"
        },
        {
          "internalType": "uint256",
          "name": "lastTxBlock",
          "type": "uint256"
        }
      ],
      "stateMutability": "view",
      "type": "function",
      "constant": true
    },
    {
      "inputs": [
        {
          "internalType": "string",
          "name": "",
          "type": "string"
        }
      ],
      "name": "_sign",
      "outputs": [
        {
          "internalType": "string",
          "name": "referenceId",
          "type": "string"
        },
        {
          "internalType": "bool",
          "name": "signerOwner",
          "type": "bool"
        },
        {
          "internalType": "bool",
          "name": "signerReceiver",
          "type": "bool"
        },
        {
          "internalType": "bool",
          "name": "signerAgent",
          "type": "bool"
        },
        {
          "internalType": "string",
          "name": "signedOwner",
          "type": "string"
        },
        {
          "internalType": "string",
          "name": "signedReceiver",
          "type": "string"
        },
        {
          "internalType": "string",
          "name": "signedAgent",
          "type": "string"
        },
        {
          "internalType": "uint256",
          "name": "releaseCount",
          "type": "uint256"
        },
        {
          "internalType": "uint256",
          "name": "revertCount",
          "type": "uint256"
        }
      ],
      "stateMutability": "view",
      "type": "function",
      "constant": true
    },
    {
      "inputs": [
        {
          "internalType": "uint256",
          "name": "",
          "type": "uint256"
        }
      ],
      "name": "agentList",
      "outputs": [
        {
          "internalType": "address",
          "name": "agentAddress",
          "type": "address"
        },
        {
          "internalType": "bool",
          "name": "isAgent",
          "type": "bool"
        }
      ],
      "stateMutability": "view",
      "type": "function",
      "constant": true
    },
    {
      "inputs": [],
      "name": "owner",
      "outputs": [
        {
          "internalType": "address",
          "name": "",
          "type": "address"
        }
      ],
      "stateMutability": "view",
      "type": "function",
      "constant": true
    },
    {
      "inputs": [
        {
          "internalType": "uint256",
          "name": "",
          "type": "uint256"
        }
      ],
      "name": "refID",
      "outputs": [
        {
          "internalType": "string",
          "name": "_referenceId",
          "type": "string"
        },
        {
          "internalType": "address",
          "name": "_sender",
          "type": "address"
        },
        {
          "internalType": "address",
          "name": "_receiver",
          "type": "address"
        },
        {
          "internalType": "address",
          "name": "_agent",
          "type": "address"
        }
      ],
      "stateMutability": "view",
      "type": "function",
      "constant": true
    },
    {
      "inputs": [],
      "name": "renounceOwnership",
      "outputs": [],
      "stateMutability": "nonpayable",
      "type": "function"
    },
    {
      "inputs": [
        {
          "internalType": "address",
          "name": "newOwner",
          "type": "address"
        }
      ],
      "name": "transferOwnership",
      "outputs": [],
      "stateMutability": "nonpayable",
      "type": "function"
    },
    {
      "stateMutability": "payable",
      "type": "receive",
      "payable": true
    },
    {
      "inputs": [
        {
          "internalType": "string",
          "name": "ref",
          "type": "string"
        }
      ],
      "name": "getEscrowSignbyRef",
      "outputs": [
        {
          "components": [
            {
              "internalType": "string",
              "name": "referenceId",
              "type": "string"
            },
            {
              "internalType": "address payable",
              "name": "owner",
              "type": "address"
            },
            {
              "internalType": "address payable",
              "name": "sender",
              "type": "address"
            },
            {
              "internalType": "address payable",
              "name": "receiver",
              "type": "address"
            },
            {
              "internalType": "address payable",
              "name": "agent",
              "type": "address"
            },
            {
              "internalType": "uint256",
              "name": "fund",
              "type": "uint256"
            },
            {
              "internalType": "bool",
              "name": "disputed",
              "type": "bool"
            },
            {
              "internalType": "bool",
              "name": "finalized",
              "type": "bool"
            },
            {
              "internalType": "uint256",
              "name": "lastTxBlock",
              "type": "uint256"
            }
          ],
          "internalType": "struct LFGlobalEscrow.Record",
          "name": "",
          "type": "tuple"
        },
        {
          "components": [
            {
              "internalType": "string",
              "name": "referenceId",
              "type": "string"
            },
            {
              "internalType": "bool",
              "name": "signerOwner",
              "type": "bool"
            },
            {
              "internalType": "bool",
              "name": "signerReceiver",
              "type": "bool"
            },
            {
              "internalType": "bool",
              "name": "signerAgent",
              "type": "bool"
            },
            {
              "internalType": "string",
              "name": "signedOwner",
              "type": "string"
            },
            {
              "internalType": "string",
              "name": "signedReceiver",
              "type": "string"
            },
            {
              "internalType": "string",
              "name": "signedAgent",
              "type": "string"
            },
            {
              "internalType": "uint256",
              "name": "releaseCount",
              "type": "uint256"
            },
            {
              "internalType": "uint256",
              "name": "revertCount",
              "type": "uint256"
            }
          ],
          "internalType": "struct LFGlobalEscrow.Sign",
          "name": "",
          "type": "tuple"
        }
      ],
      "stateMutability": "view",
      "type": "function",
      "constant": true
    },
    {
      "inputs": [],
      "name": "getRefID",
      "outputs": [
        {
          "components": [
            {
              "internalType": "string",
              "name": "_referenceId",
              "type": "string"
            },
            {
              "internalType": "address",
              "name": "_sender",
              "type": "address"
            },
            {
              "internalType": "address",
              "name": "_receiver",
              "type": "address"
            },
            {
              "internalType": "address",
              "name": "_agent",
              "type": "address"
            }
          ],
          "internalType": "struct LFGlobalEscrow.RefRecord[]",
          "name": "",
          "type": "tuple[]"
        }
      ],
      "stateMutability": "view",
      "type": "function",
      "constant": true
    },
    {
      "inputs": [
        {
          "internalType": "address",
          "name": "newAgent",
          "type": "address"
        }
      ],
      "name": "addSingleAgent",
      "outputs": [],
      "stateMutability": "nonpayable",
      "type": "function"
    },
    {
      "inputs": [
        {
          "internalType": "address",
          "name": "newCEth",
          "type": "address"
        }
      ],
      "name": "addCEthAddress",
      "outputs": [],
      "stateMutability": "nonpayable",
      "type": "function"
    },
    {
      "inputs": [],
      "name": "getAgentList",
      "outputs": [
        {
          "components": [
            {
              "internalType": "address",
              "name": "agentAddress",
              "type": "address"
            },
            {
              "internalType": "bool",
              "name": "isAgent",
              "type": "bool"
            }
          ],
          "internalType": "struct LFGlobalEscrow.AgentList[]",
          "name": "",
          "type": "tuple[]"
        }
      ],
      "stateMutability": "view",
      "type": "function",
      "constant": true
    },
    {
      "inputs": [],
      "name": "getAgentListEmit",
      "outputs": [],
      "stateMutability": "nonpayable",
      "type": "function"
    },
    {
      "inputs": [],
      "name": "getCEthAddress",
      "outputs": [
        {
          "internalType": "address",
          "name": "",
          "type": "address"
        }
      ],
      "stateMutability": "view",
      "type": "function",
      "constant": true
    },
    {
      "inputs": [
        {
          "internalType": "string",
          "name": "_referenceId",
          "type": "string"
        },
        {
          "internalType": "address payable",
          "name": "_receiver",
          "type": "address"
        },
        {
          "internalType": "address payable",
          "name": "_agent",
          "type": "address"
        }
      ],
      "name": "init",
      "outputs": [
        {
          "internalType": "bool",
          "name": "",
          "type": "bool"
        }
      ],
      "stateMutability": "payable",
      "type": "function",
      "payable": true
    },
    {
      "inputs": [
        {
          "internalType": "string",
          "name": "_referenceId",
          "type": "string"
        }
      ],
      "name": "releaseOwner",
      "outputs": [
        {
          "internalType": "bool",
          "name": "",
          "type": "bool"
        }
      ],
      "stateMutability": "nonpayable",
      "type": "function"
    },
    {
      "inputs": [
        {
          "internalType": "string",
          "name": "_referenceId",
          "type": "string"
        }
      ],
      "name": "releaseAgent",
      "outputs": [
        {
          "internalType": "bool",
          "name": "",
          "type": "bool"
        }
      ],
      "stateMutability": "nonpayable",
      "type": "function"
    },
    {
      "inputs": [
        {
          "internalType": "string",
          "name": "_referenceId",
          "type": "string"
        }
      ],
      "name": "reverseReceiver",
      "outputs": [
        {
          "internalType": "bool",
          "name": "",
          "type": "bool"
        }
      ],
      "stateMutability": "nonpayable",
      "type": "function"
    },
    {
      "inputs": [
        {
          "internalType": "string",
          "name": "_referenceId",
          "type": "string"
        }
      ],
      "name": "reverseAgent",
      "outputs": [
        {
          "internalType": "bool",
          "name": "",
          "type": "bool"
        }
      ],
      "stateMutability": "nonpayable",
      "type": "function"
    },
    {
      "inputs": [
        {
          "internalType": "string",
          "name": "_referenceId",
          "type": "string"
        }
      ],
      "name": "withdraw",
      "outputs": [
        {
          "internalType": "bool",
          "name": "",
          "type": "bool"
        }
      ],
      "stateMutability": "nonpayable",
      "type": "function"
    },
    {
      "inputs": [
        {
          "internalType": "string",
          "name": "_referenceId",
          "type": "string"
        }
      ],
      "name": "dispute",
      "outputs": [
        {
          "internalType": "bool",
          "name": "",
          "type": "bool"
        }
      ],
      "stateMutability": "nonpayable",
      "type": "function"
    }
  ],
  "bytecode": "0x60806040523480156200001157600080fd5b5062000032620000266200003860201b60201c565b6200004060201b60201c565b62000104565b600033905090565b60008060009054906101000a900473ffffffffffffffffffffffffffffffffffffffff169050816000806101000a81548173ffffffffffffffffffffffffffffffffffffffff021916908373ffffffffffffffffffffffffffffffffffffffff1602179055508173ffffffffffffffffffffffffffffffffffffffff168173ffffffffffffffffffffffffffffffffffffffff167f8be0079c531659141344cd1fd0a4f28419497f9722a3daafe3b4186f6b6457e060405160405180910390a35050565b616a4080620001146000396000f3fe60806040526004361061012e5760003560e01c806368c9a3d6116100ab5780638f771bf01161006f5780638f771bf014610418578063a46573a514610458578063a791623b1461049d578063cdf748ad146104e2578063d959bd8e1461051f578063f2fde38b1461054a57610135565b806368c9a3d61461032b578063715018a61461036957806371f72fa01461038057806384c9d3af146103b05780638da5cb5b146103ed57610135565b8063309c17a7116100f2578063309c17a71461024657806331fb67c21461026f57806345906ef1146102ac5780634d2f274b146102c357806351e080c7146102ee57610135565b806303c9c5ff1461013a5780630f958d1d146101635780632f80c54f1461018e5780632fb2c8b1146101cc5780632ff38aa71461020957610135565b3661013557005b600080fd5b34801561014657600080fd5b50610161600480360381019061015c9190615243565b610573565b005b34801561016f57600080fd5b506101786106aa565b6040516101859190615378565b60405180910390f35b34801561019a57600080fd5b506101b560048036038101906101b091906153d0565b610776565b6040516101c392919061541b565b60405180910390f35b3480156101d857600080fd5b506101f360048036038101906101ee919061558a565b6107d3565b60405161020091906155d3565b60405180910390f35b34801561021557600080fd5b50610230600480360381019061022b919061558a565b610955565b60405161023d91906155d3565b60405180910390f35b34801561025257600080fd5b5061026d60048036038101906102689190615243565b6111d9565b005b34801561027b57600080fd5b506102966004803603810190610291919061558a565b611486565b6040516102a391906155d3565b60405180910390f35b3480156102b857600080fd5b506102c1611ba4565b005b3480156102cf57600080fd5b506102d8611bde565b6040516102e5919061579b565b60405180910390f35b3480156102fa57600080fd5b506103156004803603810190610310919061558a565b611dd1565b60405161032291906155d3565b60405180910390f35b34801561033757600080fd5b50610352600480360381019061034d919061558a565b612655565b60405161036092919061598c565b60405180910390f35b34801561037557600080fd5b5061037e612ba9565b005b61039a600480360381019061039591906159ef565b612c31565b6040516103a791906155d3565b60405180910390f35b3480156103bc57600080fd5b506103d760048036038101906103d2919061558a565b613220565b6040516103e491906155d3565b60405180910390f35b3480156103f957600080fd5b50610402613aa4565b60405161040f9190615a5e565b60405180910390f35b34801561042457600080fd5b5061043f600480360381019061043a91906153d0565b613acd565b60405161044f9493929190615ac3565b60405180910390f35b34801561046457600080fd5b5061047f600480360381019061047a919061558a565b613bf5565b60405161049499989796959493929190615b2d565b60405180910390f35b3480156104a957600080fd5b506104c460048036038101906104bf919061558a565b613d7b565b6040516104d999989796959493929190615bc1565b60405180910390f35b3480156104ee57600080fd5b506105096004803603810190610504919061558a565b614026565b60405161051691906155d3565b60405180910390f35b34801561052b57600080fd5b506105346148aa565b6040516105419190615a5e565b60405180910390f35b34801561055657600080fd5b50610571600480360381019061056c9190615243565b6148d4565b005b600073ffffffffffffffffffffffffffffffffffffffff166105936149cc565b73ffffffffffffffffffffffffffffffffffffffff1614156105ea576040517f08c379a00000000000000000000000000000000000000000000000000000000081526004016105e190615cb6565b60405180910390fd5b6105f2613aa4565b73ffffffffffffffffffffffffffffffffffffffff166106106149cc565b73ffffffffffffffffffffffffffffffffffffffff1614610666576040517f08c379a000000000000000000000000000000000000000000000000000000000815260040161065d90615d22565b60405180910390fd5b80600160006101000a81548173ffffffffffffffffffffffffffffffffffffffff021916908373ffffffffffffffffffffffffffffffffffffffff16021790555050565b60606004805480602002602001604051908101604052809291908181526020016000905b8282101561076d578382906000526020600020016040518060400160405290816000820160009054906101000a900473ffffffffffffffffffffffffffffffffffffffff1673ffffffffffffffffffffffffffffffffffffffff1673ffffffffffffffffffffffffffffffffffffffff1681526020016000820160149054906101000a900460ff161515151581525050815260200190600101906106ce565b50505050905090565b6004818154811061078657600080fd5b906000526020600020016000915090508060000160009054906101000a900473ffffffffffffffffffffffffffffffffffffffff16908060000160149054906101000a900460ff16905082565b6000806002836040516107e69190615d7e565b908152602001604051809103902090508060060160019054906101000a900460ff1615610848576040517f08c379a000000000000000000000000000000000000000000000000000000000815260040161083f90615de1565b60405180910390fd5b8060020160009054906101000a900473ffffffffffffffffffffffffffffffffffffffff1673ffffffffffffffffffffffffffffffffffffffff1661088b6149cc565b73ffffffffffffffffffffffffffffffffffffffff16148061090357508060030160009054906101000a900473ffffffffffffffffffffffffffffffffffffffff1673ffffffffffffffffffffffffffffffffffffffff166108eb6149cc565b73ffffffffffffffffffffffffffffffffffffffff16145b610942576040517f08c379a000000000000000000000000000000000000000000000000000000000815260040161093990615e73565b60405180910390fd5b61094b816149d4565b6001915050919050565b60008160008151141561099d576040517f08c379a000000000000000000000000000000000000000000000000000000000815260040161099490615f05565b60405180910390fd5b6002836040516109ad9190615d7e565b908152602001604051809103902060060160019054906101000a900460ff1615610a0c576040517f08c379a0000000000000000000000000000000000000000000000000000000008152600401610a0390615de1565b60405180910390fd5b610a146149cc565b73ffffffffffffffffffffffffffffffffffffffff16600284604051610a3a9190615d7e565b908152602001604051809103902060030160009054906101000a900473ffffffffffffffffffffffffffffffffffffffff1673ffffffffffffffffffffffffffffffffffffffff1614610ac2576040517f08c379a0000000000000000000000000000000000000000000000000000000008152600401610ab990615f71565b60405180910390fd5b600383604051610ad29190615d7e565b908152602001604051809103902060010160009054906101000a900460ff16610b30576040517f08c379a0000000000000000000000000000000000000000000000000000000008152600401610b2790615fdd565b60405180910390fd5b6000600284604051610b429190615d7e565b908152602001604051809103902060405180610120016040529081600082018054610b6c9061602c565b80601f0160208091040260200160405190810160405280929190818152602001828054610b989061602c565b8015610be55780601f10610bba57610100808354040283529160200191610be5565b820191906000526020600020905b815481529060010190602001808311610bc857829003601f168201915b505050505081526020016001820160009054906101000a900473ffffffffffffffffffffffffffffffffffffffff1673ffffffffffffffffffffffffffffffffffffffff1673ffffffffffffffffffffffffffffffffffffffff1681526020016002820160009054906101000a900473ffffffffffffffffffffffffffffffffffffffff1673ffffffffffffffffffffffffffffffffffffffff1673ffffffffffffffffffffffffffffffffffffffff1681526020016003820160009054906101000a900473ffffffffffffffffffffffffffffffffffffffff1673ffffffffffffffffffffffffffffffffffffffff1673ffffffffffffffffffffffffffffffffffffffff1681526020016004820160009054906101000a900473ffffffffffffffffffffffffffffffffffffffff1673ffffffffffffffffffffffffffffffffffffffff1673ffffffffffffffffffffffffffffffffffffffff168152602001600582015481526020016006820160009054906101000a900460ff161515151581526020016006820160019054906101000a900460ff1615151515815260200160078201548152505090506000600385604051610da49190615d7e565b908152602001604051809103902090506040518060400160405280600681526020017f5245564552540000000000000000000000000000000000000000000000000000815250816003019080519060200190610e01929190614c5e565b50806006016000815480929190610e179061608d565b91905055507f70b7e14e7d76a46341615ed597cf891989cb4f46652c0853cdaf73f88ebcc9cb85610e466149cc565b8360020184600401866101000151604051610e6595949392919061616b565b60405180910390a16001935050506000600282604051610e859190615d7e565b908152602001604051809103902090506000600383604051610ea79190615d7e565b908152602001604051809103902060405180610120016040529081600082018054610ed19061602c565b80601f0160208091040260200160405190810160405280929190818152602001828054610efd9061602c565b8015610f4a5780601f10610f1f57610100808354040283529160200191610f4a565b820191906000526020600020905b815481529060010190602001808311610f2d57829003601f168201915b505050505081526020016001820160009054906101000a900460ff161515151581526020016001820160019054906101000a900460ff161515151581526020016001820160029054906101000a900460ff16151515158152602001600282018054610fb49061602c565b80601f0160208091040260200160405190810160405280929190818152602001828054610fe09061602c565b801561102d5780601f106110025761010080835404028352916020019161102d565b820191906000526020600020905b81548152906001019060200180831161101057829003601f168201915b505050505081526020016003820180546110469061602c565b80601f01602080910402602001604051908101604052809291908181526020018280546110729061602c565b80156110bf5780601f10611094576101008083540402835291602001916110bf565b820191906000526020600020905b8154815290600101906020018083116110a257829003601f168201915b505050505081526020016004820180546110d89061602c565b80601f01602080910402602001604051908101604052809291908181526020018280546111049061602c565b80156111515780601f1061112657610100808354040283529160200191611151565b820191906000526020600020905b81548152906001019060200180831161113457829003601f168201915b5050505050815260200160058201548152602001600682015481525050905060028160e00151141561118b5761118682614a46565b6111d1565b600281610100015114156111a7576111a282614ac2565b6111d0565b60018160e001511480156111c057506001816101000151145b156111cf576111ce826149d4565b5b5b5b505050919050565b600073ffffffffffffffffffffffffffffffffffffffff166111f96149cc565b73ffffffffffffffffffffffffffffffffffffffff161415611250576040517f08c379a000000000000000000000000000000000000000000000000000000000815260040161124790615cb6565b60405180910390fd5b611258613aa4565b73ffffffffffffffffffffffffffffffffffffffff166112766149cc565b73ffffffffffffffffffffffffffffffffffffffff16146112cc576040517f08c379a00000000000000000000000000000000000000000000000000000000081526004016112c390615d22565b60405180910390fd5b60005b60048054905081101561139f578173ffffffffffffffffffffffffffffffffffffffff1660048281548110611307576113066161d3565b5b9060005260206000200160000160009054906101000a900473ffffffffffffffffffffffffffffffffffffffff1673ffffffffffffffffffffffffffffffffffffffff16141561138c576040517f08c379a00000000000000000000000000000000000000000000000000000000081526004016113839061624e565b60405180910390fd5b80806113979061608d565b9150506112cf565b506113a8614ce4565b81816000019073ffffffffffffffffffffffffffffffffffffffff16908173ffffffffffffffffffffffffffffffffffffffff168152505060018160200190151590811515815250506004819080600181540180825580915050600190039060005260206000200160009091909190915060008201518160000160006101000a81548173ffffffffffffffffffffffffffffffffffffffff021916908373ffffffffffffffffffffffffffffffffffffffff16021790555060208201518160000160146101000a81548160ff02191690831515021790555050505050565b6000806002836040516114999190615d7e565b908152602001604051809103902090508060060160019054906101000a900460ff166114fa576040517f08c379a00000000000000000000000000000000000000000000000000000000081526004016114f1906162e0565b60405180910390fd5b8060010160009054906101000a900473ffffffffffffffffffffffffffffffffffffffff1673ffffffffffffffffffffffffffffffffffffffff1661153d6149cc565b73ffffffffffffffffffffffffffffffffffffffff1614611593576040517f08c379a000000000000000000000000000000000000000000000000000000000815260040161158a9061634c565b60405180910390fd5b600160009054906101000a900473ffffffffffffffffffffffffffffffffffffffff1673ffffffffffffffffffffffffffffffffffffffff16633af9e669306040518263ffffffff1660e01b81526004016115ee9190615a5e565b6020604051808303816000875af115801561160d573d6000803e3d6000fd5b505050506040513d601f19601f820116820180604052508101906116319190616381565b8160050154111561164157600080fd5b438160070181905550600160009054906101000a900473ffffffffffffffffffffffffffffffffffffffff1673ffffffffffffffffffffffffffffffffffffffff1663852a12e382600501546040518263ffffffff1660e01b81526004016116a991906163ae565b6020604051808303816000875af11580156116c8573d6000803e3d6000fd5b505050506040513d601f19601f820116820180604052508101906116ec9190616381565b508060010160009054906101000a900473ffffffffffffffffffffffffffffffffffffffff1673ffffffffffffffffffffffffffffffffffffffff166108fc82600501549081150290604051600060405180830381858888f1935050505061175357600080fd5b6000816005018190555060005b600580549050811015611b1e57838051906020012060058281548110611789576117886161d3565b5b90600052602060002090600402016000016040516117a79190616468565b604051809103902014611b0b576117bc614d16565b600582815481106117d0576117cf6161d3565b5b906000526020600020906004020160030160009054906101000a900473ffffffffffffffffffffffffffffffffffffffff16816060019073ffffffffffffffffffffffffffffffffffffffff16908173ffffffffffffffffffffffffffffffffffffffff16815250506005828154811061184d5761184c6161d3565b5b906000526020600020906004020160020160009054906101000a900473ffffffffffffffffffffffffffffffffffffffff16816040019073ffffffffffffffffffffffffffffffffffffffff16908173ffffffffffffffffffffffffffffffffffffffff1681525050600582815481106118ca576118c96161d3565b5b906000526020600020906004020160010160009054906101000a900473ffffffffffffffffffffffffffffffffffffffff16816020019073ffffffffffffffffffffffffffffffffffffffff16908173ffffffffffffffffffffffffffffffffffffffff168152505060058281548110611947576119466161d3565b5b906000526020600020906004020160000180546119639061602c565b80601f016020809104026020016040519081016040528092919081815260200182805461198f9061602c565b80156119dc5780601f106119b1576101008083540402835291602001916119dc565b820191906000526020600020905b8154815290600101906020018083116119bf57829003601f168201915b5050505050816000018190525060068190806001815401808255809150506001900390600052602060002090600402016000909190919091506000820151816000019080519060200190611a31929190614c5e565b5060208201518160010160006101000a81548173ffffffffffffffffffffffffffffffffffffffff021916908373ffffffffffffffffffffffffffffffffffffffff16021790555060408201518160020160006101000a81548173ffffffffffffffffffffffffffffffffffffffff021916908373ffffffffffffffffffffffffffffffffffffffff16021790555060608201518160030160006101000a81548173ffffffffffffffffffffffffffffffffffffffff021916908373ffffffffffffffffffffffffffffffffffffffff1602179055505050505b8080611b169061608d565b915050611760565b5060056000611b2d9190614d80565b60066005908054611b3f929190614da4565b5060066000611b4e9190614d80565b7f97b28ca69e829f8732888691286e6f63ee8081d533f819475d208202210daf2583611b786149cc565b83600501548460070154604051611b92949392919061647f565b60405180910390a16001915050919050565b7f115ef1193bdf1fb7b0728a3dbc0be0fd952b7ec5c864082530cd7beffb6248496004604051611bd49190616628565b60405180910390a1565b60606005805480602002602001604051908101604052809291908181526020016000905b82821015611dc85783829060005260206000209060040201604051806080016040529081600082018054611c359061602c565b80601f0160208091040260200160405190810160405280929190818152602001828054611c619061602c565b8015611cae5780601f10611c8357610100808354040283529160200191611cae565b820191906000526020600020905b815481529060010190602001808311611c9157829003601f168201915b505050505081526020016001820160009054906101000a900473ffffffffffffffffffffffffffffffffffffffff1673ffffffffffffffffffffffffffffffffffffffff1673ffffffffffffffffffffffffffffffffffffffff1681526020016002820160009054906101000a900473ffffffffffffffffffffffffffffffffffffffff1673ffffffffffffffffffffffffffffffffffffffff1673ffffffffffffffffffffffffffffffffffffffff1681526020016003820160009054906101000a900473ffffffffffffffffffffffffffffffffffffffff1673ffffffffffffffffffffffffffffffffffffffff1673ffffffffffffffffffffffffffffffffffffffff168152505081526020019060010190611c02565b50505050905090565b600081600081511415611e19576040517f08c379a0000000000000000000000000000000000000000000000000000000008152600401611e1090615f05565b60405180910390fd5b600283604051611e299190615d7e565b908152602001604051809103902060060160019054906101000a900460ff1615611e88576040517f08c379a0000000000000000000000000000000000000000000000000000000008152600401611e7f90615de1565b60405180910390fd5b611e906149cc565b73ffffffffffffffffffffffffffffffffffffffff16600284604051611eb69190615d7e565b908152602001604051809103902060040160009054906101000a900473ffffffffffffffffffffffffffffffffffffffff1673ffffffffffffffffffffffffffffffffffffffff1614611f3e576040517f08c379a0000000000000000000000000000000000000000000000000000000008152600401611f3590616696565b60405180910390fd5b600383604051611f4e9190615d7e565b908152602001604051809103902060010160029054906101000a900460ff16611fac576040517f08c379a0000000000000000000000000000000000000000000000000000000008152600401611fa390616702565b60405180910390fd5b6000600284604051611fbe9190615d7e565b908152602001604051809103902060405180610120016040529081600082018054611fe89061602c565b80601f01602080910402602001604051908101604052809291908181526020018280546120149061602c565b80156120615780601f1061203657610100808354040283529160200191612061565b820191906000526020600020905b81548152906001019060200180831161204457829003601f168201915b505050505081526020016001820160009054906101000a900473ffffffffffffffffffffffffffffffffffffffff1673ffffffffffffffffffffffffffffffffffffffff1673ffffffffffffffffffffffffffffffffffffffff1681526020016002820160009054906101000a900473ffffffffffffffffffffffffffffffffffffffff1673ffffffffffffffffffffffffffffffffffffffff1673ffffffffffffffffffffffffffffffffffffffff1681526020016003820160009054906101000a900473ffffffffffffffffffffffffffffffffffffffff1673ffffffffffffffffffffffffffffffffffffffff1673ffffffffffffffffffffffffffffffffffffffff1681526020016004820160009054906101000a900473ffffffffffffffffffffffffffffffffffffffff1673ffffffffffffffffffffffffffffffffffffffff1673ffffffffffffffffffffffffffffffffffffffff168152602001600582015481526020016006820160009054906101000a900460ff161515151581526020016006820160019054906101000a900460ff16151515158152602001600782015481525050905060006003856040516122209190615d7e565b908152602001604051809103902090506040518060400160405280600781526020017f52454c454153450000000000000000000000000000000000000000000000000081525081600401908051906020019061227d929190614c5e565b508060050160008154809291906122939061608d565b91905055507f70b7e14e7d76a46341615ed597cf891989cb4f46652c0853cdaf73f88ebcc9cb856122c26149cc565b83600201846004018661010001516040516122e195949392919061616b565b60405180910390a160019350505060006002826040516123019190615d7e565b9081526020016040518091039020905060006003836040516123239190615d7e565b90815260200160405180910390206040518061012001604052908160008201805461234d9061602c565b80601f01602080910402602001604051908101604052809291908181526020018280546123799061602c565b80156123c65780601f1061239b576101008083540402835291602001916123c6565b820191906000526020600020905b8154815290600101906020018083116123a957829003601f168201915b505050505081526020016001820160009054906101000a900460ff161515151581526020016001820160019054906101000a900460ff161515151581526020016001820160029054906101000a900460ff161515151581526020016002820180546124309061602c565b80601f016020809104026020016040519081016040528092919081815260200182805461245c9061602c565b80156124a95780601f1061247e576101008083540402835291602001916124a9565b820191906000526020600020905b81548152906001019060200180831161248c57829003601f168201915b505050505081526020016003820180546124c29061602c565b80601f01602080910402602001604051908101604052809291908181526020018280546124ee9061602c565b801561253b5780601f106125105761010080835404028352916020019161253b565b820191906000526020600020905b81548152906001019060200180831161251e57829003601f168201915b505050505081526020016004820180546125549061602c565b80601f01602080910402602001604051908101604052809291908181526020018280546125809061602c565b80156125cd5780601f106125a2576101008083540402835291602001916125cd565b820191906000526020600020905b8154815290600101906020018083116125b057829003601f168201915b5050505050815260200160058201548152602001600682015481525050905060028160e0015114156126075761260282614a46565b61264d565b600281610100015114156126235761261e82614ac2565b61264c565b60018160e0015114801561263c57506001816101000151145b1561264b5761264a826149d4565b5b5b5b505050919050565b61265d614f51565b612665614ff9565b6002836040516126759190615d7e565b90815260200160405180910390206003846040516126939190615d7e565b908152602001604051809103902081604051806101200160405290816000820180546126be9061602c565b80601f01602080910402602001604051908101604052809291908181526020018280546126ea9061602c565b80156127375780601f1061270c57610100808354040283529160200191612737565b820191906000526020600020905b81548152906001019060200180831161271a57829003601f168201915b505050505081526020016001820160009054906101000a900473ffffffffffffffffffffffffffffffffffffffff1673ffffffffffffffffffffffffffffffffffffffff1673ffffffffffffffffffffffffffffffffffffffff1681526020016002820160009054906101000a900473ffffffffffffffffffffffffffffffffffffffff1673ffffffffffffffffffffffffffffffffffffffff1673ffffffffffffffffffffffffffffffffffffffff1681526020016003820160009054906101000a900473ffffffffffffffffffffffffffffffffffffffff1673ffffffffffffffffffffffffffffffffffffffff1673ffffffffffffffffffffffffffffffffffffffff1681526020016004820160009054906101000a900473ffffffffffffffffffffffffffffffffffffffff1673ffffffffffffffffffffffffffffffffffffffff1673ffffffffffffffffffffffffffffffffffffffff168152602001600582015481526020016006820160009054906101000a900460ff161515151581526020016006820160019054906101000a900460ff16151515158152602001600782015481525050915080604051806101200160405290816000820180546129019061602c565b80601f016020809104026020016040519081016040528092919081815260200182805461292d9061602c565b801561297a5780601f1061294f5761010080835404028352916020019161297a565b820191906000526020600020905b81548152906001019060200180831161295d57829003601f168201915b505050505081526020016001820160009054906101000a900460ff161515151581526020016001820160019054906101000a900460ff161515151581526020016001820160029054906101000a900460ff161515151581526020016002820180546129e49061602c565b80601f0160208091040260200160405190810160405280929190818152602001828054612a109061602c565b8015612a5d5780601f10612a3257610100808354040283529160200191612a5d565b820191906000526020600020905b815481529060010190602001808311612a4057829003601f168201915b50505050508152602001600382018054612a769061602c565b80601f0160208091040260200160405190810160405280929190818152602001828054612aa29061602c565b8015612aef5780601f10612ac457610100808354040283529160200191612aef565b820191906000526020600020905b815481529060010190602001808311612ad257829003601f168201915b50505050508152602001600482018054612b089061602c565b80601f0160208091040260200160405190810160405280929190818152602001828054612b349061602c565b8015612b815780601f10612b5657610100808354040283529160200191612b81565b820191906000526020600020905b815481529060010190602001808311612b6457829003601f168201915b5050505050815260200160058201548152602001600682015481525050905091509150915091565b612bb16149cc565b73ffffffffffffffffffffffffffffffffffffffff16612bcf613aa4565b73ffffffffffffffffffffffffffffffffffffffff1614612c25576040517f08c379a0000000000000000000000000000000000000000000000000000000008152600401612c1c9061676e565b60405180910390fd5b612c2f6000614b9a565b565b60008073ffffffffffffffffffffffffffffffffffffffff16612c526149cc565b73ffffffffffffffffffffffffffffffffffffffff161415612ca9576040517f08c379a0000000000000000000000000000000000000000000000000000000008152600401612ca090615cb6565b60405180910390fd5b600073ffffffffffffffffffffffffffffffffffffffff168373ffffffffffffffffffffffffffffffffffffffff161415612d19576040517f08c379a0000000000000000000000000000000000000000000000000000000008152600401612d10906167da565b60405180910390fd5b6000600285604051612d2b9190615d7e565b9081526020016040518091039020905084816000019080519060200190612d53929190614c5e565b50612d5c6149cc565b8160010160006101000a81548173ffffffffffffffffffffffffffffffffffffffff021916908373ffffffffffffffffffffffffffffffffffffffff160217905550612da66149cc565b8160020160006101000a81548173ffffffffffffffffffffffffffffffffffffffff021916908373ffffffffffffffffffffffffffffffffffffffff160217905550838160030160006101000a81548173ffffffffffffffffffffffffffffffffffffffff021916908373ffffffffffffffffffffffffffffffffffffffff160217905550828160040160006101000a81548173ffffffffffffffffffffffffffffffffffffffff021916908373ffffffffffffffffffffffffffffffffffffffff16021790555034816005018190555060008160060160006101000a81548160ff02191690831515021790555060008160060160016101000a81548160ff0219169083151502179055504381600701819055506000600386604051612ecc9190615d7e565b9081526020016040518091039020905085816000019080519060200190612ef4929190614c5e565b5060018160010160006101000a81548160ff02191690831515021790555060018160010160016101000a81548160ff02191690831515021790555060018160010160026101000a81548160ff0219169083151502179055506000816005018190555060008160060181905550612f68614d16565b84816060019073ffffffffffffffffffffffffffffffffffffffff16908173ffffffffffffffffffffffffffffffffffffffff168152505085816040019073ffffffffffffffffffffffffffffffffffffffff16908173ffffffffffffffffffffffffffffffffffffffff1681525050612fe06149cc565b816020019073ffffffffffffffffffffffffffffffffffffffff16908173ffffffffffffffffffffffffffffffffffffffff168152505086816000018190525060058190806001815401808255809150506001900390600052602060002090600402016000909190919091506000820151816000019080519060200190613068929190614c5e565b5060208201518160010160006101000a81548173ffffffffffffffffffffffffffffffffffffffff021916908373ffffffffffffffffffffffffffffffffffffffff16021790555060408201518160020160006101000a81548173ffffffffffffffffffffffffffffffffffffffff021916908373ffffffffffffffffffffffffffffffffffffffff16021790555060608201518160030160006101000a81548173ffffffffffffffffffffffffffffffffffffffff021916908373ffffffffffffffffffffffffffffffffffffffff1602179055505050600160009054906101000a900473ffffffffffffffffffffffffffffffffffffffff1673ffffffffffffffffffffffffffffffffffffffff16631249c58b346203d090906040518363ffffffff1660e01b81526004016000604051808303818589803b1580156131af57600080fd5b5088f11580156131c3573d6000803e3d6000fd5b5050505050507fe3e0b51461ea4b21a8e0dc96c638fa1e80060560c4d89ec1f572f729749a773f876131f36149cc565b348989600060405161320a96959493929190616894565b60405180910390a1600193505050509392505050565b600081600081511415613268576040517f08c379a000000000000000000000000000000000000000000000000000000000815260040161325f90615f05565b60405180910390fd5b6002836040516132789190615d7e565b908152602001604051809103902060060160019054906101000a900460ff16156132d7576040517f08c379a00000000000000000000000000000000000000000000000000000000081526004016132ce90615de1565b60405180910390fd5b6132df6149cc565b73ffffffffffffffffffffffffffffffffffffffff166002846040516133059190615d7e565b908152602001604051809103902060040160009054906101000a900473ffffffffffffffffffffffffffffffffffffffff1673ffffffffffffffffffffffffffffffffffffffff161461338d576040517f08c379a000000000000000000000000000000000000000000000000000000000815260040161338490616696565b60405180910390fd5b60038360405161339d9190615d7e565b908152602001604051809103902060010160029054906101000a900460ff166133fb576040517f08c379a00000000000000000000000000000000000000000000000000000000081526004016133f290616702565b60405180910390fd5b600060028460405161340d9190615d7e565b9081526020016040518091039020604051806101200160405290816000820180546134379061602c565b80601f01602080910402602001604051908101604052809291908181526020018280546134639061602c565b80156134b05780601f10613485576101008083540402835291602001916134b0565b820191906000526020600020905b81548152906001019060200180831161349357829003601f168201915b505050505081526020016001820160009054906101000a900473ffffffffffffffffffffffffffffffffffffffff1673ffffffffffffffffffffffffffffffffffffffff1673ffffffffffffffffffffffffffffffffffffffff1681526020016002820160009054906101000a900473ffffffffffffffffffffffffffffffffffffffff1673ffffffffffffffffffffffffffffffffffffffff1673ffffffffffffffffffffffffffffffffffffffff1681526020016003820160009054906101000a900473ffffffffffffffffffffffffffffffffffffffff1673ffffffffffffffffffffffffffffffffffffffff1673ffffffffffffffffffffffffffffffffffffffff1681526020016004820160009054906101000a900473ffffffffffffffffffffffffffffffffffffffff1673ffffffffffffffffffffffffffffffffffffffff1673ffffffffffffffffffffffffffffffffffffffff168152602001600582015481526020016006820160009054906101000a900460ff161515151581526020016006820160019054906101000a900460ff161515151581526020016007820154815250509050600060038560405161366f9190615d7e565b908152602001604051809103902090506040518060400160405280600681526020017f52455645525400000000000000000000000000000000000000000000000000008152508160040190805190602001906136cc929190614c5e565b508060060160008154809291906136e29061608d565b91905055507f70b7e14e7d76a46341615ed597cf891989cb4f46652c0853cdaf73f88ebcc9cb856137116149cc565b836002018460040186610100015160405161373095949392919061616b565b60405180910390a160019350505060006002826040516137509190615d7e565b9081526020016040518091039020905060006003836040516137729190615d7e565b90815260200160405180910390206040518061012001604052908160008201805461379c9061602c565b80601f01602080910402602001604051908101604052809291908181526020018280546137c89061602c565b80156138155780601f106137ea57610100808354040283529160200191613815565b820191906000526020600020905b8154815290600101906020018083116137f857829003601f168201915b505050505081526020016001820160009054906101000a900460ff161515151581526020016001820160019054906101000a900460ff161515151581526020016001820160029054906101000a900460ff1615151515815260200160028201805461387f9061602c565b80601f01602080910402602001604051908101604052809291908181526020018280546138ab9061602c565b80156138f85780601f106138cd576101008083540402835291602001916138f8565b820191906000526020600020905b8154815290600101906020018083116138db57829003601f168201915b505050505081526020016003820180546139119061602c565b80601f016020809104026020016040519081016040528092919081815260200182805461393d9061602c565b801561398a5780601f1061395f5761010080835404028352916020019161398a565b820191906000526020600020905b81548152906001019060200180831161396d57829003601f168201915b505050505081526020016004820180546139a39061602c565b80601f01602080910402602001604051908101604052809291908181526020018280546139cf9061602c565b8015613a1c5780601f106139f157610100808354040283529160200191613a1c565b820191906000526020600020905b8154815290600101906020018083116139ff57829003601f168201915b5050505050815260200160058201548152602001600682015481525050905060028160e001511415613a5657613a5182614a46565b613a9c565b60028161010001511415613a7257613a6d82614ac2565b613a9b565b60018160e00151148015613a8b57506001816101000151145b15613a9a57613a99826149d4565b5b5b5b505050919050565b60008060009054906101000a900473ffffffffffffffffffffffffffffffffffffffff16905090565b60058181548110613add57600080fd5b9060005260206000209060040201600091509050806000018054613b009061602c565b80601f0160208091040260200160405190810160405280929190818152602001828054613b2c9061602c565b8015613b795780601f10613b4e57610100808354040283529160200191613b79565b820191906000526020600020905b815481529060010190602001808311613b5c57829003601f168201915b5050505050908060010160009054906101000a900473ffffffffffffffffffffffffffffffffffffffff16908060020160009054906101000a900473ffffffffffffffffffffffffffffffffffffffff16908060030160009054906101000a900473ffffffffffffffffffffffffffffffffffffffff16905084565b600281805160208101820180518482526020830160208501208183528095505050505050600091509050806000018054613c2e9061602c565b80601f0160208091040260200160405190810160405280929190818152602001828054613c5a9061602c565b8015613ca75780601f10613c7c57610100808354040283529160200191613ca7565b820191906000526020600020905b815481529060010190602001808311613c8a57829003601f168201915b5050505050908060010160009054906101000a900473ffffffffffffffffffffffffffffffffffffffff16908060020160009054906101000a900473ffffffffffffffffffffffffffffffffffffffff16908060030160009054906101000a900473ffffffffffffffffffffffffffffffffffffffff16908060040160009054906101000a900473ffffffffffffffffffffffffffffffffffffffff16908060050154908060060160009054906101000a900460ff16908060060160019054906101000a900460ff16908060070154905089565b600381805160208101820180518482526020830160208501208183528095505050505050600091509050806000018054613db49061602c565b80601f0160208091040260200160405190810160405280929190818152602001828054613de09061602c565b8015613e2d5780601f10613e0257610100808354040283529160200191613e2d565b820191906000526020600020905b815481529060010190602001808311613e1057829003601f168201915b5050505050908060010160009054906101000a900460ff16908060010160019054906101000a900460ff16908060010160029054906101000a900460ff1690806002018054613e7b9061602c565b80601f0160208091040260200160405190810160405280929190818152602001828054613ea79061602c565b8015613ef45780601f10613ec957610100808354040283529160200191613ef4565b820191906000526020600020905b815481529060010190602001808311613ed757829003601f168201915b505050505090806003018054613f099061602c565b80601f0160208091040260200160405190810160405280929190818152602001828054613f359061602c565b8015613f825780601f10613f5757610100808354040283529160200191613f82565b820191906000526020600020905b815481529060010190602001808311613f6557829003601f168201915b505050505090806004018054613f979061602c565b80601f0160208091040260200160405190810160405280929190818152602001828054613fc39061602c565b80156140105780601f10613fe557610100808354040283529160200191614010565b820191906000526020600020905b815481529060010190602001808311613ff357829003601f168201915b5050505050908060050154908060060154905089565b60008160008151141561406e576040517f08c379a000000000000000000000000000000000000000000000000000000000815260040161406590615f05565b60405180910390fd5b60028360405161407e9190615d7e565b908152602001604051809103902060060160019054906101000a900460ff16156140dd576040517f08c379a00000000000000000000000000000000000000000000000000000000081526004016140d490615de1565b60405180910390fd5b6140e56149cc565b73ffffffffffffffffffffffffffffffffffffffff1660028460405161410b9190615d7e565b908152602001604051809103902060010160009054906101000a900473ffffffffffffffffffffffffffffffffffffffff1673ffffffffffffffffffffffffffffffffffffffff1614614193576040517f08c379a000000000000000000000000000000000000000000000000000000000815260040161418a90615f71565b60405180910390fd5b6003836040516141a39190615d7e565b908152602001604051809103902060010160009054906101000a900460ff16614201576040517f08c379a00000000000000000000000000000000000000000000000000000000081526004016141f890615fdd565b60405180910390fd5b60006002846040516142139190615d7e565b90815260200160405180910390206040518061012001604052908160008201805461423d9061602c565b80601f01602080910402602001604051908101604052809291908181526020018280546142699061602c565b80156142b65780601f1061428b576101008083540402835291602001916142b6565b820191906000526020600020905b81548152906001019060200180831161429957829003601f168201915b505050505081526020016001820160009054906101000a900473ffffffffffffffffffffffffffffffffffffffff1673ffffffffffffffffffffffffffffffffffffffff1673ffffffffffffffffffffffffffffffffffffffff1681526020016002820160009054906101000a900473ffffffffffffffffffffffffffffffffffffffff1673ffffffffffffffffffffffffffffffffffffffff1673ffffffffffffffffffffffffffffffffffffffff1681526020016003820160009054906101000a900473ffffffffffffffffffffffffffffffffffffffff1673ffffffffffffffffffffffffffffffffffffffff1673ffffffffffffffffffffffffffffffffffffffff1681526020016004820160009054906101000a900473ffffffffffffffffffffffffffffffffffffffff1673ffffffffffffffffffffffffffffffffffffffff1673ffffffffffffffffffffffffffffffffffffffff168152602001600582015481526020016006820160009054906101000a900460ff161515151581526020016006820160019054906101000a900460ff16151515158152602001600782015481525050905060006003856040516144759190615d7e565b908152602001604051809103902090506040518060400160405280600781526020017f52454c45415345000000000000000000000000000000000000000000000000008152508160020190805190602001906144d2929190614c5e565b508060050160008154809291906144e89061608d565b91905055507f70b7e14e7d76a46341615ed597cf891989cb4f46652c0853cdaf73f88ebcc9cb856145176149cc565b836002018460040186610100015160405161453695949392919061616b565b60405180910390a160019350505060006002826040516145569190615d7e565b9081526020016040518091039020905060006003836040516145789190615d7e565b9081526020016040518091039020604051806101200160405290816000820180546145a29061602c565b80601f01602080910402602001604051908101604052809291908181526020018280546145ce9061602c565b801561461b5780601f106145f05761010080835404028352916020019161461b565b820191906000526020600020905b8154815290600101906020018083116145fe57829003601f168201915b505050505081526020016001820160009054906101000a900460ff161515151581526020016001820160019054906101000a900460ff161515151581526020016001820160029054906101000a900460ff161515151581526020016002820180546146859061602c565b80601f01602080910402602001604051908101604052809291908181526020018280546146b19061602c565b80156146fe5780601f106146d3576101008083540402835291602001916146fe565b820191906000526020600020905b8154815290600101906020018083116146e157829003601f168201915b505050505081526020016003820180546147179061602c565b80601f01602080910402602001604051908101604052809291908181526020018280546147439061602c565b80156147905780601f1061476557610100808354040283529160200191614790565b820191906000526020600020905b81548152906001019060200180831161477357829003601f168201915b505050505081526020016004820180546147a99061602c565b80601f01602080910402602001604051908101604052809291908181526020018280546147d59061602c565b80156148225780601f106147f757610100808354040283529160200191614822565b820191906000526020600020905b81548152906001019060200180831161480557829003601f168201915b5050505050815260200160058201548152602001600682015481525050905060028160e00151141561485c5761485782614a46565b6148a2565b600281610100015114156148785761487382614ac2565b6148a1565b60018160e0015114801561489157506001816101000151145b156148a05761489f826149d4565b5b5b5b505050919050565b6000600160009054906101000a900473ffffffffffffffffffffffffffffffffffffffff16905090565b6148dc6149cc565b73ffffffffffffffffffffffffffffffffffffffff166148fa613aa4565b73ffffffffffffffffffffffffffffffffffffffff1614614950576040517f08c379a00000000000000000000000000000000000000000000000000000000081526004016149479061676e565b60405180910390fd5b600073ffffffffffffffffffffffffffffffffffffffff168173ffffffffffffffffffffffffffffffffffffffff1614156149c0576040517f08c379a00000000000000000000000000000000000000000000000000000000081526004016149b79061696e565b60405180910390fd5b6149c981614b9a565b50565b600033905090565b60018160060160006101000a81548160ff0219169083151502179055504381600701819055507f896f80afccf2d42eea326de6388e61b8d3f8c31cf759d9c316ceb375c8b9edf981600001614a276149cc565b8360070154604051614a3b9392919061698e565b60405180910390a150565b8060030160009054906101000a900473ffffffffffffffffffffffffffffffffffffffff168160010160006101000a81548173ffffffffffffffffffffffffffffffffffffffff021916908373ffffffffffffffffffffffffffffffffffffffff160217905550614ab681614ac2565b43816007018190555050565b8060060160019054906101000a900460ff1615614b14576040517f08c379a0000000000000000000000000000000000000000000000000000000008152600401614b0b90615de1565b60405180910390fd5b60018160060160016101000a81548160ff0219169083151502179055507f714a2331fdd01f2f274af5d0082c030acf5294cfb7cd1cb9be2fe7e92e921151816000018260010160009054906101000a900473ffffffffffffffffffffffffffffffffffffffff168360070154604051614b8f939291906169cc565b60405180910390a150565b60008060009054906101000a900473ffffffffffffffffffffffffffffffffffffffff169050816000806101000a81548173ffffffffffffffffffffffffffffffffffffffff021916908373ffffffffffffffffffffffffffffffffffffffff1602179055508173ffffffffffffffffffffffffffffffffffffffff168173ffffffffffffffffffffffffffffffffffffffff167f8be0079c531659141344cd1fd0a4f28419497f9722a3daafe3b4186f6b6457e060405160405180910390a35050565b828054614c6a9061602c565b90600052602060002090601f016020900481019282614c8c5760008555614cd3565b82601f10614ca557805160ff1916838001178555614cd3565b82800160010185558215614cd3579182015b82811115614cd2578251825591602001919060010190614cb7565b5b509050614ce0919061504b565b5090565b6040518060400160405280600073ffffffffffffffffffffffffffffffffffffffff1681526020016000151581525090565b604051806080016040528060608152602001600073ffffffffffffffffffffffffffffffffffffffff168152602001600073ffffffffffffffffffffffffffffffffffffffff168152602001600073ffffffffffffffffffffffffffffffffffffffff1681525090565b5080546000825560040290600052602060002090810190614da19190615068565b50565b828054828255906000526020600020906004028101928215614f405760005260206000209160040282015b82811115614f3f5782826000820181600001908054614ded9061602c565b614df8929190615104565b506001820160009054906101000a900473ffffffffffffffffffffffffffffffffffffffff168160010160006101000a81548173ffffffffffffffffffffffffffffffffffffffff021916908373ffffffffffffffffffffffffffffffffffffffff1602179055506002820160009054906101000a900473ffffffffffffffffffffffffffffffffffffffff168160020160006101000a81548173ffffffffffffffffffffffffffffffffffffffff021916908373ffffffffffffffffffffffffffffffffffffffff1602179055506003820160009054906101000a900473ffffffffffffffffffffffffffffffffffffffff168160030160006101000a81548173ffffffffffffffffffffffffffffffffffffffff021916908373ffffffffffffffffffffffffffffffffffffffff160217905550505091600401919060040190614dcf565b5b509050614f4d9190615068565b5090565b60405180610120016040528060608152602001600073ffffffffffffffffffffffffffffffffffffffff168152602001600073ffffffffffffffffffffffffffffffffffffffff168152602001600073ffffffffffffffffffffffffffffffffffffffff168152602001600073ffffffffffffffffffffffffffffffffffffffff16815260200160008152602001600015158152602001600015158152602001600081525090565b6040518061012001604052806060815260200160001515815260200160001515815260200160001515815260200160608152602001606081526020016060815260200160008152602001600081525090565b5b8082111561506457600081600090555060010161504c565b5090565b5b8082111561510057600080820160006150829190615191565b6001820160006101000a81549073ffffffffffffffffffffffffffffffffffffffff02191690556002820160006101000a81549073ffffffffffffffffffffffffffffffffffffffff02191690556003820160006101000a81549073ffffffffffffffffffffffffffffffffffffffff021916905550600401615069565b5090565b8280546151109061602c565b90600052602060002090601f0160209004810192826151325760008555615180565b82601f106151435780548555615180565b8280016001018555821561518057600052602060002091601f016020900482015b8281111561517f578254825591600101919060010190615164565b5b50905061518d919061504b565b5090565b50805461519d9061602c565b6000825580601f106151af57506151ce565b601f0160209004906000526020600020908101906151cd919061504b565b5b50565b6000604051905090565b600080fd5b600080fd5b600073ffffffffffffffffffffffffffffffffffffffff82169050919050565b6000615210826151e5565b9050919050565b61522081615205565b811461522b57600080fd5b50565b60008135905061523d81615217565b92915050565b600060208284031215615259576152586151db565b5b60006152678482850161522e565b91505092915050565b600081519050919050565b600082825260208201905092915050565b6000819050602082019050919050565b6152a581615205565b82525050565b60008115159050919050565b6152c0816152ab565b82525050565b6040820160008201516152dc600085018261529c565b5060208201516152ef60208501826152b7565b50505050565b600061530183836152c6565b60408301905092915050565b6000602082019050919050565b600061532582615270565b61532f818561527b565b935061533a8361528c565b8060005b8381101561536b57815161535288826152f5565b975061535d8361530d565b92505060018101905061533e565b5085935050505092915050565b60006020820190508181036000830152615392818461531a565b905092915050565b6000819050919050565b6153ad8161539a565b81146153b857600080fd5b50565b6000813590506153ca816153a4565b92915050565b6000602082840312156153e6576153e56151db565b5b60006153f4848285016153bb565b91505092915050565b61540681615205565b82525050565b615415816152ab565b82525050565b600060408201905061543060008301856153fd565b61543d602083018461540c565b9392505050565b600080fd5b600080fd5b6000601f19601f8301169050919050565b7f4e487b7100000000000000000000000000000000000000000000000000000000600052604160045260246000fd5b6154978261544e565b810181811067ffffffffffffffff821117156154b6576154b561545f565b5b80604052505050565b60006154c96151d1565b90506154d5828261548e565b919050565b600067ffffffffffffffff8211156154f5576154f461545f565b5b6154fe8261544e565b9050602081019050919050565b82818337600083830152505050565b600061552d615528846154da565b6154bf565b90508281526020810184848401111561554957615548615449565b5b61555484828561550b565b509392505050565b600082601f83011261557157615570615444565b5b813561558184826020860161551a565b91505092915050565b6000602082840312156155a05761559f6151db565b5b600082013567ffffffffffffffff8111156155be576155bd6151e0565b5b6155ca8482850161555c565b91505092915050565b60006020820190506155e8600083018461540c565b92915050565b600081519050919050565b600082825260208201905092915050565b6000819050602082019050919050565b600081519050919050565b600082825260208201905092915050565b60005b83811015615654578082015181840152602081019050615639565b83811115615663576000848401525b50505050565b60006156748261561a565b61567e8185615625565b935061568e818560208601615636565b6156978161544e565b840191505092915050565b600060808301600083015184820360008601526156bf8282615669565b91505060208301516156d4602086018261529c565b5060408301516156e7604086018261529c565b5060608301516156fa606086018261529c565b508091505092915050565b600061571183836156a2565b905092915050565b6000602082019050919050565b6000615731826155ee565b61573b81856155f9565b93508360208202850161574d8561560a565b8060005b85811015615789578484038952815161576a8582615705565b945061577583615719565b925060208a01995050600181019050615751565b50829750879550505050505092915050565b600060208201905081810360008301526157b58184615726565b905092915050565b60006157c8826151e5565b9050919050565b6157d8816157bd565b82525050565b6157e78161539a565b82525050565b600061012083016000830151848203600086015261580b8282615669565b915050602083015161582060208601826157cf565b50604083015161583360408601826157cf565b50606083015161584660608601826157cf565b50608083015161585960808601826157cf565b5060a083015161586c60a08601826157de565b5060c083015161587f60c08601826152b7565b5060e083015161589260e08601826152b7565b506101008301516158a76101008601826157de565b508091505092915050565b60006101208301600083015184820360008601526158d08282615669565b91505060208301516158e560208601826152b7565b5060408301516158f860408601826152b7565b50606083015161590b60608601826152b7565b50608083015184820360808601526159238282615669565b91505060a083015184820360a086015261593d8282615669565b91505060c083015184820360c08601526159578282615669565b91505060e083015161596c60e08601826157de565b506101008301516159816101008601826157de565b508091505092915050565b600060408201905081810360008301526159a681856157ed565b905081810360208301526159ba81846158b2565b90509392505050565b6159cc816157bd565b81146159d757600080fd5b50565b6000813590506159e9816159c3565b92915050565b600080600060608486031215615a0857615a076151db565b5b600084013567ffffffffffffffff811115615a2657615a256151e0565b5b615a328682870161555c565b9350506020615a43868287016159da565b9250506040615a54868287016159da565b9150509250925092565b6000602082019050615a7360008301846153fd565b92915050565b600082825260208201905092915050565b6000615a958261561a565b615a9f8185615a79565b9350615aaf818560208601615636565b615ab88161544e565b840191505092915050565b60006080820190508181036000830152615add8187615a8a565b9050615aec60208301866153fd565b615af960408301856153fd565b615b0660608301846153fd565b95945050505050565b615b18816157bd565b82525050565b615b278161539a565b82525050565b6000610120820190508181036000830152615b48818c615a8a565b9050615b57602083018b615b0f565b615b64604083018a615b0f565b615b716060830189615b0f565b615b7e6080830188615b0f565b615b8b60a0830187615b1e565b615b9860c083018661540c565b615ba560e083018561540c565b615bb3610100830184615b1e565b9a9950505050505050505050565b6000610120820190508181036000830152615bdc818c615a8a565b9050615beb602083018b61540c565b615bf8604083018a61540c565b615c05606083018961540c565b8181036080830152615c178188615a8a565b905081810360a0830152615c2b8187615a8a565b905081810360c0830152615c3f8186615a8a565b9050615c4e60e0830185615b1e565b615c5c610100830184615b1e565b9a9950505050505050505050565b7f53656e6465722073686f756c64206e6f74206265206e756c6c00000000000000600082015250565b6000615ca0601983615a79565b9150615cab82615c6a565b602082019050919050565b60006020820190508181036000830152615ccf81615c93565b9050919050565b7f53656e64657220697473206e6f74206f776e6572000000000000000000000000600082015250565b6000615d0c601483615a79565b9150615d1782615cd6565b602082019050919050565b60006020820190508181036000830152615d3b81615cff565b9050919050565b600081905092915050565b6000615d588261561a565b615d628185615d42565b9350615d72818560208601615636565b80840191505092915050565b6000615d8a8284615d4d565b915081905092915050565b7f457363726f772073686f756c64206e6f742062652066696e616c697a65640000600082015250565b6000615dcb601e83615a79565b9150615dd682615d95565b602082019050919050565b60006020820190508181036000830152615dfa81615dbe565b9050919050565b7f4f6e6c792073656e646572206f722072656365697665722063616e2063616c6c60008201527f2064697370757465000000000000000000000000000000000000000000000000602082015250565b6000615e5d602883615a79565b9150615e6882615e01565b604082019050919050565b60006020820190508181036000830152615e8c81615e50565b9050919050565b7f5f7265666572656e636549642073686f756c64206e6f74206861766520656d7060008201527f7479000000000000000000000000000000000000000000000000000000000000602082015250565b6000615eef602283615a79565b9150615efa82615e93565b604082019050919050565b60006020820190508181036000830152615f1e81615ee2565b9050919050565b7f6d73672073656e6465722073686f756c642062652061732073656e6465720000600082015250565b6000615f5b601e83615a79565b9150615f6682615f25565b602082019050919050565b60006020820190508181036000830152615f8a81615f4e565b9050919050565b7f7369676e6572206f776e6572206d757374206265207369676e00000000000000600082015250565b6000615fc7601983615a79565b9150615fd282615f91565b602082019050919050565b60006020820190508181036000830152615ff681615fba565b9050919050565b7f4e487b7100000000000000000000000000000000000000000000000000000000600052602260045260246000fd5b6000600282049050600182168061604457607f821691505b6020821081141561605857616057615ffd565b5b50919050565b7f4e487b7100000000000000000000000000000000000000000000000000000000600052601160045260246000fd5b60006160988261539a565b91507fffffffffffffffffffffffffffffffffffffffffffffffffffffffffffffffff8214156160cb576160ca61605e565b5b600182019050919050565b60008190508160005260206000209050919050565b600081546160f88161602c565b6161028186615a79565b9450600182166000811461611d576001811461612f57616162565b60ff1983168652602086019350616162565b616138856160d6565b60005b8381101561615a5781548189015260018201915060208101905061613b565b808801955050505b50505092915050565b600060a08201905081810360008301526161858188615a8a565b905061619460208301876153fd565b81810360408301526161a681866160eb565b905081810360608301526161ba81856160eb565b90506161c96080830184615b1e565b9695505050505050565b7f4e487b7100000000000000000000000000000000000000000000000000000000600052603260045260246000fd5b7f6167656e74206164647265737320616c72656164792061646465640000000000600082015250565b6000616238601b83615a79565b915061624382616202565b602082019050919050565b600060208201905081810360008301526162678161622b565b9050919050565b7f457363726f772073686f756c642062652066696e616c697a6564206265666f7260008201527f65207769746864726177616c0000000000000000000000000000000000000000602082015250565b60006162ca602c83615a79565b91506162d58261626e565b604082019050919050565b600060208201905081810360008301526162f9816162bd565b9050919050565b7f6f6e6c79206f776e65722063616e20776974686472617766756e647300000000600082015250565b6000616336601c83615a79565b915061634182616300565b602082019050919050565b6000602082019050818103600083015261636581616329565b9050919050565b60008151905061637b816153a4565b92915050565b600060208284031215616397576163966151db565b5b60006163a58482850161636c565b91505092915050565b60006020820190506163c36000830184615b1e565b92915050565b600081905092915050565b60008190508160005260206000209050919050565b600081546163f68161602c565b61640081866163c9565b9450600182166000811461641b576001811461642c5761645f565b60ff1983168652818601935061645f565b616435856163d4565b60005b8381101561645757815481890152600182019150602081019050616438565b838801955050505b50505092915050565b600061647482846163e9565b915081905092915050565b600060808201905081810360008301526164998187615a8a565b90506164a860208301866153fd565b6164b56040830185615b1e565b6164c26060830184615b1e565b95945050505050565b600081549050919050565b60008190508160005260206000209050919050565b60008160001c9050919050565b600073ffffffffffffffffffffffffffffffffffffffff82169050919050565b600061652b616526836164eb565b6164f8565b9050919050565b60008160a01c9050919050565b600060ff82169050919050565b600061655f61655a83616532565b61653f565b9050919050565b60408201600080830154905061657b81616518565b616588600086018261529c565b506165928161654c565b61659f60208601826152b7565b5050505050565b60006165b28383616566565b60408301905092915050565b6000600182019050919050565b60006165d6826164cb565b6165e0818561527b565b93506165eb836164d6565b8060005b8381101561661b578161660288826165a6565b975061660d836165be565b9250506001810190506165ef565b5085935050505092915050565b6000602082019050818103600083015261664281846165cb565b905092915050565b7f6d73672073656e6465722073686f756c64206265206173206167656e74000000600082015250565b6000616680601d83615a79565b915061668b8261664a565b602082019050919050565b600060208201905081810360008301526166af81616673565b9050919050565b7f7369676e6572206167656e74206d757374206265207369676e00000000000000600082015250565b60006166ec601983615a79565b91506166f7826166b6565b602082019050919050565b6000602082019050818103600083015261671b816166df565b9050919050565b7f4f776e61626c653a2063616c6c6572206973206e6f7420746865206f776e6572600082015250565b6000616758602083615a79565b915061676382616722565b602082019050919050565b600060208201905081810360008301526167878161674b565b9050919050565b7f52656365697665722073686f756c64206e6f74206265206e756c6c0000000000600082015250565b60006167c4601b83615a79565b91506167cf8261678e565b602082019050919050565b600060208201905081810360008301526167f3816167b7565b9050919050565b6000819050919050565b600061681f61681a616815846151e5565b6167fa565b6151e5565b9050919050565b600061683182616804565b9050919050565b600061684382616826565b9050919050565b61685381616838565b82525050565b6000819050919050565b600061687e61687961687484616859565b6167fa565b61539a565b9050919050565b61688e81616863565b82525050565b600060c08201905081810360008301526168ae8189615a8a565b90506168bd60208301886153fd565b6168ca6040830187615b1e565b6168d7606083018661684a565b6168e4608083018561684a565b6168f160a0830184616885565b979650505050505050565b7f4f776e61626c653a206e6577206f776e657220697320746865207a65726f206160008201527f6464726573730000000000000000000000000000000000000000000000000000602082015250565b6000616958602683615a79565b9150616963826168fc565b604082019050919050565b600060208201905081810360008301526169878161694b565b9050919050565b600060608201905081810360008301526169a881866160eb565b90506169b760208301856153fd565b6169c46040830184615b1e565b949350505050565b600060608201905081810360008301526169e681866160eb565b90506169f5602083018561684a565b616a026040830184615b1e565b94935050505056fea26469706673582212200f1dd0bca2c9025fe0361be92a7cd496e7b5a0dc1b587d15a8b88c31859f319764736f6c634300080b0033",
  "immutableReferences": {},
  "source": "// SPDX-License-Identifier: MIT\r\n\r\npragma solidity 0.8.11;\r\n\r\n\r\nabstract contract Context {\r\n    function _msgSender() internal view virtual returns (address) {\r\n        return msg.sender;\r\n    }\r\n    function _msgData() internal view virtual returns (bytes calldata) {\r\n        return msg.data;\r\n    }\r\n}\r\n\r\nabstract contract Ownable is Context {\r\n    address private _owner;\r\n    event OwnershipTransferred(address indexed previousOwner, address indexed newOwner);\r\n    constructor() {\r\n        _transferOwnership(_msgSender());\r\n    }\r\n    function owner() public view virtual returns (address) {\r\n        return _owner;\r\n    }\r\n    modifier onlyOwner() {\r\n        require(owner() == _msgSender(), \"Ownable: caller is not the owner\");\r\n        _;\r\n    }\r\n    function renounceOwnership() public virtual onlyOwner {\r\n        _transferOwnership(address(0));\r\n    }\r\n    function transferOwnership(address newOwner) public virtual onlyOwner {\r\n        require(newOwner != address(0), \"Ownable: new owner is the zero address\");\r\n        _transferOwnership(newOwner);\r\n    }\r\n    function _transferOwnership(address newOwner) internal virtual {\r\n        address oldOwner = _owner;\r\n        _owner = newOwner;\r\n        emit OwnershipTransferred(oldOwner, newOwner);\r\n    }\r\n}\r\n\r\ninterface CEth {\r\n    function mint() external payable;\r\n    function exchangeRateCurrent() external returns (uint256);\r\n    function supplyRatePerBlock() external returns (uint256);\r\n    function redeem(uint) external returns (uint);\r\n    function redeemUnderlying(uint) external returns (uint);\r\n    function balanceOfUnderlying(address) external returns (uint);\r\n}\r\n\r\n\r\ncontract LFGlobalEscrow is Ownable {\r\n\r\n    event Initiated(string referenceId, address payer, uint256 amount, address payee, address trustedParty, uint256 lastBlock);\r\n    event Signature(string referenceId, address signer, string signedOwner, string signedAgent, uint256 lastBlock);\r\n    event Finalized(string referenceId, address winner, uint256 lastBlock);\r\n    event Disputed(string referenceId, address disputer, uint256 lastBlock);\r\n    event Withdrawn(string referenceId, address payee, uint256 amount, uint256 lastBlock);\r\n\r\n    event getAgentLists(AgentList[] agentList);\r\n\r\n    CEth cEth;\r\n    struct Record {\r\n        string referenceId;\r\n        address payable owner;\r\n        address payable sender;\r\n        address payable receiver;\r\n        address payable agent;\r\n        uint256 fund;\r\n        bool disputed;\r\n        bool finalized;\r\n        uint256 lastTxBlock;\r\n    }\r\n    mapping(string => Record) public _escrow;\r\n\r\n    struct Sign {\r\n        string referenceId;\r\n        bool signerOwner;\r\n        bool signerReceiver;\r\n        bool signerAgent;\r\n        string signedOwner;\r\n        string signedReceiver;\r\n        string signedAgent;\r\n        uint256 releaseCount;\r\n        uint256 revertCount;\r\n    }\r\n    mapping(string => Sign) public _sign;\r\n\r\n    struct AgentList {\r\n        address agentAddress;\r\n        bool isAgent;\r\n    }\r\n    \r\n    AgentList[] public agentList;\r\n\r\n    struct RefRecord {\r\n        string _referenceId;\r\n        address _sender;\r\n        address _receiver;\r\n        address _agent;\r\n    }\r\n    RefRecord[] public refID;\r\n    RefRecord[] private bufrefID;\r\n\r\n    function getEscrowSignbyRef(string memory ref) public view  returns (Record memory, Sign memory){\r\n        return (_escrow[ref], _sign[ref]);\r\n    }\r\n\r\n    function getRefID() public view  returns (RefRecord[] memory){\r\n        return refID;\r\n    }\r\n\r\n    function addSingleAgent(address newAgent) public {\r\n        require(_msgSender() != address(0), \"Sender should not be null\");\r\n        require(_msgSender() == owner(), \"Sender its not owner\");\r\n        for (uint i = 0; i < agentList.length; i ++) {\r\n            require(agentList[i].agentAddress != newAgent, \"agent address already added\");\r\n        }\r\n        AgentList memory newAgentList;\r\n        newAgentList.agentAddress = newAgent;\r\n        newAgentList.isAgent    = true;\r\n        agentList.push(newAgentList);\r\n    }\r\n\r\n    function addCEthAddress(address newCEth) public {\r\n        require(_msgSender() != address(0), \"Sender should not be null\");\r\n        require(_msgSender() == owner(), \"Sender its not owner\");\r\n        cEth = CEth(newCEth);\r\n    }\r\n\r\n    function getAgentList() public view returns(AgentList[] memory) {\r\n        return agentList;\r\n    }\r\n\r\n    function getAgentListEmit() public {\r\n        emit getAgentLists(agentList);\r\n    }\r\n\r\n    function getCEthAddress() public view returns(address) {\r\n        return address(cEth);\r\n    }\r\n\r\n    modifier multisigcheck(string memory _referenceId) {\r\n        require(bytes(_referenceId).length != 0, \"_referenceId should not have empty\");\r\n        _;\r\n\r\n        Record storage e = _escrow[_referenceId];\r\n        Sign memory s = _sign[_referenceId];\r\n        if(s.releaseCount == 2) {\r\n        transferOwner(e);\r\n        }else if(s.revertCount == 2) {\r\n        finalize(e);\r\n        }else if(s.releaseCount == 1 && s.revertCount == 1) {\r\n        dispute(e); \r\n        }\r\n    }\r\n\r\n    function init(string memory _referenceId, address payable _receiver, address payable _agent) public payable returns(bool) {\r\n        require(_msgSender() != address(0), \"Sender should not be null\");\r\n        require(_receiver != address(0), \"Receiver should not be null\");\r\n        Record storage e = _escrow[_referenceId];\r\n        e.referenceId = _referenceId;\r\n        e.owner = payable(_msgSender());\r\n        e.sender = payable(_msgSender());\r\n        e.receiver = _receiver;\r\n        e.agent = _agent;\r\n        e.fund = msg.value;\r\n        e.disputed = false;\r\n        e.finalized = false;\r\n        e.lastTxBlock = block.number;\r\n        Sign storage s = _sign[_referenceId];\r\n        s.referenceId = _referenceId;\r\n        s.signerOwner = true;\r\n        s.signerReceiver = true;\r\n        s.signerAgent  = true;\r\n        s.releaseCount = 0;\r\n        s.revertCount = 0;\r\n        RefRecord memory newRefID;\r\n        newRefID._agent = _agent;\r\n        newRefID._receiver = _receiver;\r\n        newRefID._sender = _msgSender();\r\n        newRefID._referenceId = _referenceId;\r\n        refID.push(newRefID);\r\n        cEth.mint{ value: msg.value, gas: 250000 }();\r\n        emit Initiated(_referenceId, _msgSender(), msg.value, _receiver, _agent, 0);\r\n        return true;\r\n    }\r\n\r\n    function releaseOwner(string memory _referenceId) public multisigcheck(_referenceId) returns(bool){\r\n        require(!_escrow[_referenceId].finalized, \"Escrow should not be finalized\");\r\n        require(_escrow[_referenceId].owner == _msgSender(), \"msg sender should be as sender\");\r\n        require(_sign[_referenceId].signerOwner, \"signer owner must be sign\");\r\n\r\n        Record memory e = _escrow[_referenceId];\r\n        Sign storage s = _sign[_referenceId];\r\n        s.signedOwner = \"RELEASE\";\r\n        s.releaseCount++;\r\n        emit Signature(_referenceId, _msgSender(), s.signedOwner, s.signedAgent,e.lastTxBlock); \r\n        return true;\r\n    }\r\n    function releaseAgent(string memory _referenceId) public multisigcheck(_referenceId) returns(bool){\r\n        require(!_escrow[_referenceId].finalized, \"Escrow should not be finalized\");\r\n        require(_escrow[_referenceId].agent == _msgSender(), \"msg sender should be as agent\");\r\n        require(_sign[_referenceId].signerAgent, \"signer agent must be sign\");\r\n\r\n        Record memory e = _escrow[_referenceId];\r\n        Sign storage s = _sign[_referenceId];\r\n        s.signedAgent = \"RELEASE\";\r\n        s.releaseCount++;\r\n        emit Signature(_referenceId, _msgSender(), s.signedOwner, s.signedAgent,e.lastTxBlock); \r\n        return true;\r\n    }\r\n\r\n    function reverseReceiver(string memory _referenceId) public multisigcheck(_referenceId) returns(bool){\r\n        require(!_escrow[_referenceId].finalized, \"Escrow should not be finalized\");\r\n        require(_escrow[_referenceId].receiver == _msgSender(), \"msg sender should be as sender\");\r\n        require(_sign[_referenceId].signerOwner, \"signer owner must be sign\");\r\n\r\n        Record memory e = _escrow[_referenceId];\r\n        Sign storage s = _sign[_referenceId];\r\n        s.signedReceiver = \"REVERT\";\r\n        s.revertCount++;\r\n        emit Signature(_referenceId, _msgSender(), s.signedOwner, s.signedAgent, e.lastTxBlock);\r\n        return true;\r\n    }\r\n    function reverseAgent(string memory _referenceId) public multisigcheck(_referenceId) returns(bool){\r\n        require(!_escrow[_referenceId].finalized, \"Escrow should not be finalized\");\r\n        require(_escrow[_referenceId].agent == _msgSender(), \"msg sender should be as agent\");\r\n        require(_sign[_referenceId].signerAgent, \"signer agent must be sign\");\r\n        Record memory e = _escrow[_referenceId];\r\n        Sign storage s = _sign[_referenceId];\r\n        s.signedAgent = \"REVERT\";\r\n        s.revertCount++;\r\n        emit Signature(_referenceId, _msgSender(), s.signedOwner, s.signedAgent, e.lastTxBlock);\r\n        return true;\r\n    }\r\n\r\n    function dispute(string memory _referenceId) public returns(bool) {\r\n        Record storage e = _escrow[_referenceId];\r\n        require(!e.finalized, \"Escrow should not be finalized\");\r\n        require(_msgSender() == e.sender || _msgSender() == e.receiver, \"Only sender or receiver can call dispute\");\r\n        dispute(e);\r\n        return true;\r\n    }\r\n    \r\n    function withdraw(string memory _referenceId) public returns(bool) {\r\n        Record storage e = _escrow[_referenceId];\r\n        require(e.finalized, \"Escrow should be finalized before withdrawal\");\r\n        require(_msgSender() == e.owner, \"only owner can withdrawfunds\");\r\n        require(e.fund <=  cEth.balanceOfUnderlying(address(this)));\r\n        e.lastTxBlock = block.number;\r\n        cEth.redeemUnderlying(e.fund);\r\n        require((e.owner).send(e.fund));\r\n        e.fund = 0;\r\n        for(uint i=0; i < refID.length; i++){\r\n            if(keccak256(bytes(refID[i]._referenceId)) != keccak256(bytes(_referenceId))){\r\n                RefRecord memory newRefID;\r\n                newRefID._agent = refID[i]._agent;\r\n                newRefID._receiver = refID[i]._receiver;\r\n                newRefID._sender = refID[i]._sender;\r\n                newRefID._referenceId = refID[i]._referenceId;\r\n                bufrefID.push(newRefID);\r\n            }\r\n        }\r\n        delete refID;\r\n        refID = bufrefID;\r\n        delete bufrefID;\r\n        emit Withdrawn(_referenceId, _msgSender(), e.fund, e.lastTxBlock);\r\n        return true;\r\n    }\r\n\r\n    function transferOwner(Record storage e) internal {\r\n        e.owner = e.receiver;\r\n        finalize(e);\r\n        e.lastTxBlock = block.number;\r\n    }\r\n\r\n    function dispute(Record storage e) internal {\r\n        e.disputed = true;\r\n        e.lastTxBlock = block.number;\r\n        emit Disputed(e.referenceId, _msgSender(), e.lastTxBlock);\r\n    }\r\n\r\n    function finalize(Record storage e) internal {\r\n        require(!e.finalized, \"Escrow should not be finalized\");\r\n        e.finalized = true;\r\n        emit Finalized(e.referenceId, e.owner, e.lastTxBlock);\r\n    }\r\n\r\n\r\n\r\n    receive() external payable {}\r\n}",
  "sourcePath": "D:\\# TES\\escrow_git\\contracts\\EscrowContract.sol",
  "compiler": {
    "name": "solc",
    "version": "0.8.11+commit.d7f03943.Emscripten.clang"
  },
  "schemaVersion": "3.4.4",
  "updatedAt": "2022-01-19T05:06:07.167Z",
  "networkType": "ethereum",
  "devdoc": {
    "kind": "dev",
    "methods": {},
    "version": 1
  },
  "userdoc": {
    "kind": "user",
    "methods": {},
    "version": 1
  }
}